{
  "address": "0x3ac8e8c48Cb3be938af6632d0dE2e52A343E6871",
  "abi": [
    {
      "inputs": [
        {
          "internalType": "address",
          "name": "_gFaddress",
          "type": "address"
        }
      ],
      "stateMutability": "nonpayable",
      "type": "constructor"
    },
    {
      "anonymous": false,
      "inputs": [
        {
          "components": [
            {
              "internalType": "uint256",
              "name": "index",
              "type": "uint256"
            },
            {
              "internalType": "address",
              "name": "addressFrom",
              "type": "address"
            },
            {
              "internalType": "address payable",
              "name": "addressTo",
              "type": "address"
            },
            {
              "internalType": "uint256",
              "name": "timestamp",
              "type": "uint256"
            },
            {
              "internalType": "uint256",
              "name": "txValue",
              "type": "uint256"
            },
            {
              "internalType": "enum status",
              "name": "_status",
              "type": "uint8"
            },
            {
              "internalType": "uint256",
              "name": "selector",
              "type": "uint256"
            },
            {
              "internalType": "uint256",
              "name": "intervalTT",
              "type": "uint256"
            },
            {
              "internalType": "address",
              "name": "addCQ",
              "type": "address"
            },
            {
              "internalType": "string",
              "name": "indexCQ",
              "type": "string"
            },
            {
              "internalType": "string",
              "name": "expectedCQ",
              "type": "string"
            },
            {
              "internalType": "string",
              "name": "argSTR",
              "type": "string"
            },
            {
              "internalType": "address",
              "name": "argAD",
              "type": "address"
            },
            {
              "internalType": "uint256",
              "name": "argINT",
              "type": "uint256"
            },
            {
              "internalType": "uint256",
              "name": "argType",
              "type": "uint256"
            }
          ],
          "indexed": false,
          "internalType": "struct txForm",
          "name": "appended",
          "type": "tuple"
        }
      ],
      "name": "AppendTxForm",
      "type": "event"
    },
    {
      "anonymous": false,
      "inputs": [
        {
          "indexed": false,
          "internalType": "bytes",
          "name": "log",
          "type": "bytes"
        }
      ],
      "name": "LogBytes",
      "type": "event"
    },
    {
      "anonymous": false,
      "inputs": [
        {
          "indexed": false,
          "internalType": "string",
          "name": "log",
          "type": "string"
        }
      ],
      "name": "LogString",
      "type": "event"
    },
    {
      "anonymous": false,
      "inputs": [
        {
          "indexed": false,
          "internalType": "address",
          "name": "addressFrom",
          "type": "address"
        },
        {
          "indexed": false,
          "internalType": "address",
          "name": "addressTo",
          "type": "address"
        },
        {
          "indexed": false,
          "internalType": "uint256",
          "name": "amonut",
          "type": "uint256"
        }
      ],
      "name": "Transaction",
      "type": "event"
    },
    {
      "anonymous": false,
      "inputs": [
        {
          "components": [
            {
              "internalType": "uint256",
              "name": "index",
              "type": "uint256"
            },
            {
              "internalType": "address",
              "name": "addressFrom",
              "type": "address"
            },
            {
              "internalType": "address payable",
              "name": "addressTo",
              "type": "address"
            },
            {
              "internalType": "uint256",
              "name": "timestamp",
              "type": "uint256"
            },
            {
              "internalType": "uint256",
              "name": "txValue",
              "type": "uint256"
            },
            {
              "internalType": "enum status",
              "name": "_status",
              "type": "uint8"
            },
            {
              "internalType": "uint256",
              "name": "selector",
              "type": "uint256"
            },
            {
              "internalType": "uint256",
              "name": "intervalTT",
              "type": "uint256"
            },
            {
              "internalType": "address",
              "name": "addCQ",
              "type": "address"
            },
            {
              "internalType": "string",
              "name": "indexCQ",
              "type": "string"
            },
            {
              "internalType": "string",
              "name": "expectedCQ",
              "type": "string"
            },
            {
              "internalType": "string",
              "name": "argSTR",
              "type": "string"
            },
            {
              "internalType": "address",
              "name": "argAD",
              "type": "address"
            },
            {
              "internalType": "uint256",
              "name": "argINT",
              "type": "uint256"
            },
            {
              "internalType": "uint256",
              "name": "argType",
              "type": "uint256"
            }
          ],
          "indexed": false,
          "internalType": "struct txForm",
          "name": "updated",
          "type": "tuple"
        }
      ],
      "name": "UpdateTxForm",
      "type": "event"
    },
    {
      "inputs": [],
      "name": "answering",
      "outputs": [
        {
          "internalType": "bool",
          "name": "",
          "type": "bool"
        }
      ],
      "stateMutability": "view",
      "type": "function"
    },
    {
      "inputs": [
        {
          "internalType": "uint256",
          "name": "i",
          "type": "uint256"
        }
      ],
      "name": "checkABItrigger",
      "outputs": [
        {
          "internalType": "bool",
          "name": "result",
          "type": "bool"
        }
      ],
      "stateMutability": "nonpayable",
      "type": "function"
    },
    {
      "inputs": [
        {
          "internalType": "uint256",
          "name": "interval",
          "type": "uint256"
        },
        {
          "components": [
            {
              "internalType": "uint256",
              "name": "index",
              "type": "uint256"
            },
            {
              "internalType": "address",
              "name": "addressFrom",
              "type": "address"
            },
            {
              "internalType": "address payable",
              "name": "addressTo",
              "type": "address"
            },
            {
              "internalType": "uint256",
              "name": "timestamp",
              "type": "uint256"
            },
            {
              "internalType": "uint256",
              "name": "txValue",
              "type": "uint256"
            },
            {
              "internalType": "enum status",
              "name": "_status",
              "type": "uint8"
            },
            {
              "internalType": "uint256",
              "name": "selector",
              "type": "uint256"
            },
            {
              "internalType": "uint256",
              "name": "intervalTT",
              "type": "uint256"
            },
            {
              "internalType": "address",
              "name": "addCQ",
              "type": "address"
            },
            {
              "internalType": "string",
              "name": "indexCQ",
              "type": "string"
            },
            {
              "internalType": "string",
              "name": "expectedCQ",
              "type": "string"
            },
            {
              "internalType": "string",
              "name": "argSTR",
              "type": "string"
            },
            {
              "internalType": "address",
              "name": "argAD",
              "type": "address"
            },
            {
              "internalType": "uint256",
              "name": "argINT",
              "type": "uint256"
            },
            {
              "internalType": "uint256",
              "name": "argType",
              "type": "uint256"
            }
          ],
          "internalType": "struct txForm",
          "name": "_txForm",
          "type": "tuple"
        }
      ],
      "name": "checkTimeTrigger",
      "outputs": [
        {
          "internalType": "bool",
          "name": "",
          "type": "bool"
        }
      ],
      "stateMutability": "view",
      "type": "function"
    },
    {
      "inputs": [
        {
          "internalType": "bytes",
          "name": "",
          "type": "bytes"
        }
      ],
      "name": "checkUpkeep",
      "outputs": [
        {
          "internalType": "bool",
          "name": "upkeepNeeded",
          "type": "bool"
        },
        {
          "internalType": "bytes",
          "name": "performData",
          "type": "bytes"
        }
      ],
      "stateMutability": "view",
      "type": "function"
    },
    {
      "inputs": [
        {
          "internalType": "address",
          "name": "_addFrom",
          "type": "address"
        },
        {
          "internalType": "address payable",
          "name": "_addTo",
          "type": "address"
        },
        {
          "internalType": "address",
          "name": "_addCQ",
          "type": "address"
        },
        {
          "internalType": "string",
          "name": "_indexCQ",
          "type": "string"
        }
      ],
      "name": "createForm",
      "outputs": [
        {
          "components": [
            {
              "internalType": "uint256",
              "name": "index",
              "type": "uint256"
            },
            {
              "internalType": "address",
              "name": "addressFrom",
              "type": "address"
            },
            {
              "internalType": "address payable",
              "name": "addressTo",
              "type": "address"
            },
            {
              "internalType": "uint256",
              "name": "timestamp",
              "type": "uint256"
            },
            {
              "internalType": "uint256",
              "name": "txValue",
              "type": "uint256"
            },
            {
              "internalType": "enum status",
              "name": "_status",
              "type": "uint8"
            },
            {
              "internalType": "uint256",
              "name": "selector",
              "type": "uint256"
            },
            {
              "internalType": "uint256",
              "name": "intervalTT",
              "type": "uint256"
            },
            {
              "internalType": "address",
              "name": "addCQ",
              "type": "address"
            },
            {
              "internalType": "string",
              "name": "indexCQ",
              "type": "string"
            },
            {
              "internalType": "string",
              "name": "expectedCQ",
              "type": "string"
            },
            {
              "internalType": "string",
              "name": "argSTR",
              "type": "string"
            },
            {
              "internalType": "address",
              "name": "argAD",
              "type": "address"
            },
            {
              "internalType": "uint256",
              "name": "argINT",
              "type": "uint256"
            },
            {
              "internalType": "uint256",
              "name": "argType",
              "type": "uint256"
            }
          ],
          "internalType": "struct txForm",
          "name": "",
          "type": "tuple"
        }
      ],
      "stateMutability": "view",
      "type": "function"
    },
    {
      "inputs": [],
      "name": "getAllForms",
      "outputs": [
        {
          "components": [
            {
              "internalType": "uint256",
              "name": "index",
              "type": "uint256"
            },
            {
              "internalType": "address",
              "name": "addressFrom",
              "type": "address"
            },
            {
              "internalType": "address payable",
              "name": "addressTo",
              "type": "address"
            },
            {
              "internalType": "uint256",
              "name": "timestamp",
              "type": "uint256"
            },
            {
              "internalType": "uint256",
              "name": "txValue",
              "type": "uint256"
            },
            {
              "internalType": "enum status",
              "name": "_status",
              "type": "uint8"
            },
            {
              "internalType": "uint256",
              "name": "selector",
              "type": "uint256"
            },
            {
              "internalType": "uint256",
              "name": "intervalTT",
              "type": "uint256"
            },
            {
              "internalType": "address",
              "name": "addCQ",
              "type": "address"
            },
            {
              "internalType": "string",
              "name": "indexCQ",
              "type": "string"
            },
            {
              "internalType": "string",
              "name": "expectedCQ",
              "type": "string"
            },
            {
              "internalType": "string",
              "name": "argSTR",
              "type": "string"
            },
            {
              "internalType": "address",
              "name": "argAD",
              "type": "address"
            },
            {
              "internalType": "uint256",
              "name": "argINT",
              "type": "uint256"
            },
            {
              "internalType": "uint256",
              "name": "argType",
              "type": "uint256"
            }
          ],
          "internalType": "struct txForm[]",
          "name": "",
          "type": "tuple[]"
        }
      ],
      "stateMutability": "view",
      "type": "function"
    },
    {
      "inputs": [
        {
          "internalType": "string[2]",
          "name": "_args",
          "type": "string[2]"
        },
        {
          "internalType": "uint256",
          "name": "_index",
          "type": "uint256"
        }
      ],
      "name": "getArgsAdd",
      "outputs": [],
      "stateMutability": "nonpayable",
      "type": "function"
    },
    {
      "inputs": [
        {
          "internalType": "uint256",
          "name": "index",
          "type": "uint256"
        }
      ],
      "name": "getForm",
      "outputs": [
        {
          "components": [
            {
              "internalType": "uint256",
              "name": "index",
              "type": "uint256"
            },
            {
              "internalType": "address",
              "name": "addressFrom",
              "type": "address"
            },
            {
              "internalType": "address payable",
              "name": "addressTo",
              "type": "address"
            },
            {
              "internalType": "uint256",
              "name": "timestamp",
              "type": "uint256"
            },
            {
              "internalType": "uint256",
              "name": "txValue",
              "type": "uint256"
            },
            {
              "internalType": "enum status",
              "name": "_status",
              "type": "uint8"
            },
            {
              "internalType": "uint256",
              "name": "selector",
              "type": "uint256"
            },
            {
              "internalType": "uint256",
              "name": "intervalTT",
              "type": "uint256"
            },
            {
              "internalType": "address",
              "name": "addCQ",
              "type": "address"
            },
            {
              "internalType": "string",
              "name": "indexCQ",
              "type": "string"
            },
            {
              "internalType": "string",
              "name": "expectedCQ",
              "type": "string"
            },
            {
              "internalType": "string",
              "name": "argSTR",
              "type": "string"
            },
            {
              "internalType": "address",
              "name": "argAD",
              "type": "address"
            },
            {
              "internalType": "uint256",
              "name": "argINT",
              "type": "uint256"
            },
            {
              "internalType": "uint256",
              "name": "argType",
              "type": "uint256"
            }
          ],
          "internalType": "struct txForm",
          "name": "",
          "type": "tuple"
        }
      ],
      "stateMutability": "view",
      "type": "function"
    },
    {
      "inputs": [],
      "name": "getFunction",
      "outputs": [
        {
          "internalType": "contract GetFunction",
          "name": "",
          "type": "address"
        }
      ],
      "stateMutability": "view",
      "type": "function"
    },
    {
      "inputs": [],
      "name": "getLockedTxValue",
      "outputs": [
        {
          "internalType": "uint256",
          "name": "",
          "type": "uint256"
        }
      ],
      "stateMutability": "view",
      "type": "function"
    },
    {
      "inputs": [
        {
          "internalType": "address",
          "name": "_add",
          "type": "address"
        },
        {
          "components": [
            {
              "internalType": "uint256",
              "name": "index",
              "type": "uint256"
            },
            {
              "internalType": "address",
              "name": "addressFrom",
              "type": "address"
            },
            {
              "internalType": "address payable",
              "name": "addressTo",
              "type": "address"
            },
            {
              "internalType": "uint256",
              "name": "timestamp",
              "type": "uint256"
            },
            {
              "internalType": "uint256",
              "name": "txValue",
              "type": "uint256"
            },
            {
              "internalType": "enum status",
              "name": "_status",
              "type": "uint8"
            },
            {
              "internalType": "uint256",
              "name": "selector",
              "type": "uint256"
            },
            {
              "internalType": "uint256",
              "name": "intervalTT",
              "type": "uint256"
            },
            {
              "internalType": "address",
              "name": "addCQ",
              "type": "address"
            },
            {
              "internalType": "string",
              "name": "indexCQ",
              "type": "string"
            },
            {
              "internalType": "string",
              "name": "expectedCQ",
              "type": "string"
            },
            {
              "internalType": "string",
              "name": "argSTR",
              "type": "string"
            },
            {
              "internalType": "address",
              "name": "argAD",
              "type": "address"
            },
            {
              "internalType": "uint256",
              "name": "argINT",
              "type": "uint256"
            },
            {
              "internalType": "uint256",
              "name": "argType",
              "type": "uint256"
            }
          ],
          "internalType": "struct txForm",
          "name": "_txForm",
          "type": "tuple"
        },
        {
          "internalType": "string",
          "name": "_fun",
          "type": "string"
        }
      ],
      "name": "getValueFromABI",
      "outputs": [
        {
          "internalType": "string",
          "name": "returnCall",
          "type": "string"
        }
      ],
      "stateMutability": "payable",
      "type": "function"
    },
    {
      "inputs": [],
      "name": "lastIndex",
      "outputs": [
        {
          "internalType": "uint256",
          "name": "",
          "type": "uint256"
        }
      ],
      "stateMutability": "view",
      "type": "function"
    },
    {
      "inputs": [
        {
          "internalType": "uint256",
          "name": "",
          "type": "uint256"
        }
      ],
      "name": "lastQuery",
      "outputs": [
        {
          "internalType": "uint256",
          "name": "",
          "type": "uint256"
        }
      ],
      "stateMutability": "view",
      "type": "function"
    },
    {
      "inputs": [
        {
          "internalType": "bytes",
          "name": "performData",
          "type": "bytes"
        }
      ],
      "name": "performUpkeep",
      "outputs": [],
      "stateMutability": "nonpayable",
      "type": "function"
    },
    {
      "inputs": [
        {
          "internalType": "address",
          "name": "_add",
          "type": "address"
        }
      ],
      "name": "returnBalance",
      "outputs": [
        {
          "internalType": "uint256",
          "name": "",
          "type": "uint256"
        }
      ],
      "stateMutability": "view",
      "type": "function"
    },
    {
      "inputs": [
        {
          "internalType": "address payable",
          "name": "addressTo",
          "type": "address"
        },
        {
          "internalType": "uint256",
          "name": "_selector",
          "type": "uint256"
        },
        {
          "internalType": "uint256",
          "name": "_intervalTT",
          "type": "uint256"
        },
        {
          "internalType": "address",
          "name": "_addCQ",
          "type": "address"
        },
        {
          "internalType": "string",
          "name": "_indexCQ",
          "type": "string"
        },
        {
          "internalType": "string",
          "name": "_expected",
          "type": "string"
        },
        {
          "internalType": "string[2]",
          "name": "_args",
          "type": "string[2]"
        }
      ],
      "name": "setTx",
      "outputs": [],
      "stateMutability": "payable",
      "type": "function"
    },
    {
      "inputs": [
        {
          "internalType": "string",
          "name": "numString",
          "type": "string"
        }
      ],
      "name": "st2num",
      "outputs": [
        {
          "internalType": "uint256",
          "name": "",
          "type": "uint256"
        }
      ],
      "stateMutability": "pure",
      "type": "function"
    },
    {
      "stateMutability": "payable",
      "type": "receive"
    }
  ],
  "transactionHash": "0x1c81a1d35441cc2ca3d067ea81229635293de262d057d00cca90f27963bad24c",
  "args": [
    "0xaCFA54c30A692FC6dB26Aec9C50498bb20d41902"
  ],
  "numDeployments": 16,
  "solcInputHash": "cb64fe235621a9af832ed186862d5906",
  "bytecode": "0x60806040523480156200001157600080fd5b50604051620038883803806200388883398101604081905262000034916200005a565b600080546001600160a01b0319166001600160a01b03929092169190911790556200008c565b6000602082840312156200006d57600080fd5b81516001600160a01b03811681146200008557600080fd5b9392505050565b6137ec806200009c6000396000f3fe6080604052600436106101025760003560e01c8063650c04db116100955780638c140ba2116100645780638c140ba2146102e45780638cf7b83614610306578063b8e5c9b814610326578063d7a3a7bf14610353578063f3f6f0d71461036657600080fd5b8063650c04db146102495780636e04ff0d1461025e5780637135ac7b1461028c57806379cd9055146102c457600080fd5b80632c1c5811116100d15780632c1c5811146101bb5780634585e33b146101dc578063479fa2c3146101fc5780635fee555f1461022957600080fd5b80630f4975471461010e5780632567325414610143578063264b2b8e14610165578063292436921461019b57600080fd5b3661010957005b600080fd5b34801561011a57600080fd5b5061012e610129366004612865565b61037c565b60405190151581526020015b60405180910390f35b34801561014f57600080fd5b5061016361015e36600461288f565b61089c565b005b34801561017157600080fd5b5061018d6101803660046128f6565b6001600160a01b03163190565b60405190815260200161013a565b6101ae6101a9366004612b4b565b610ade565b60405161013a9190612c10565b3480156101c757600080fd5b5060005461012e90600160a01b900460ff1681565b3480156101e857600080fd5b506101636101f7366004612c6b565b610d9d565b34801561020857600080fd5b5061021c610217366004612865565b61115a565b60405161013a9190612e0a565b34801561023557600080fd5b5061012e610244366004612e1d565b611418565b34801561025557600080fd5b5061018d611436565b34801561026a57600080fd5b5061027e610279366004612c6b565b6114ed565b60405161013a929190612e63565b34801561029857600080fd5b506000546102ac906001600160a01b031681565b6040516001600160a01b03909116815260200161013a565b3480156102d057600080fd5b5061018d6102df366004612e86565b6119b7565b3480156102f057600080fd5b506102f9611a5b565b60405161013a9190612eba565b34801561031257600080fd5b5061021c610321366004612f1c565b611d40565b34801561033257600080fd5b5061018d610341366004612865565b60046020526000908152604090205481565b610163610361366004612f90565b611de9565b34801561037257600080fd5b5061018d60055481565b6000806103b96002848154811061039557610395613055565b600091825260209091206008600f9092020101546001600160a01b03166014612214565b600054600280549293506001600160a01b0390911691632a2fb838918491879081106103e7576103e7613055565b90600052602060002090600f02016009016040518363ffffffff1660e01b815260040161041592919061311c565b6020604051808303816000875af1158015610434573d6000803e3d6000fd5b505050506040513d601f19601f820116820180604052508101906104589190613141565b5060008060009054906101000a90046001600160a01b03166001600160a01b031663cb4037226040518163ffffffff1660e01b8152600401600060405180830381865afa1580156104ad573d6000803e3d6000fd5b505050506040513d6000823e601f3d908101601f191682016040526104d5919081019061315a565b905060006107ca600286815481106104ef576104ef613055565b90600052602060002090600f020160080160009054906101000a90046001600160a01b03166002878154811061052757610527613055565b6000918252602091829020604080516101e081018252600f9093029091018054835260018101546001600160a01b039081169484019490945260028082015490941691830191909152600381015460608301526004810154608083015260058101549192909160a084019160ff909116908111156105a7576105a7612cac565b60028111156105b8576105b8612cac565b8152600682015460208201526007820154604082015260088201546001600160a01b031660608201526009820180546080909201916105f69061306b565b80601f01602080910402602001604051908101604052809291908181526020018280546106229061306b565b801561066f5780601f106106445761010080835404028352916020019161066f565b820191906000526020600020905b81548152906001019060200180831161065257829003601f168201915b50505050508152602001600a820180546106889061306b565b80601f01602080910402602001604051908101604052809291908181526020018280546106b49061306b565b80156107015780601f106106d657610100808354040283529160200191610701565b820191906000526020600020905b8154815290600101906020018083116106e457829003601f168201915b50505050508152602001600b8201805461071a9061306b565b80601f01602080910402602001604051908101604052809291908181526020018280546107469061306b565b80156107935780601f1061076857610100808354040283529160200191610793565b820191906000526020600020905b81548152906001019060200180831161077657829003601f168201915b5050509183525050600c8201546001600160a01b03166020820152600d8201546040820152600e9091015460609091015284610ade565b905061089381600287815481106107e3576107e3613055565b90600052602060002090600f0201600a0180546107ff9061306b565b80601f016020809104026020016040519081016040528092919081815260200182805461082b9061306b565b80156108785780601f1061084d57610100808354040283529160200191610878565b820191906000526020600020905b81548152906001019060200180831161085b57829003601f168201915b50505050508051602091820120825192909101919091201490565b95945050505050565b6000600282815481106108b1576108b1613055565b90600052602060002090600f02019050610940836000600281106108d7576108d7613055565b6020028101906108e791906131c7565b8080601f016020809104026020016040519081016040528093929190818152602001838380828437600092019190915250506040805180820190915260078152666164647265737360c81b602082015291506123b69050565b156109835761095260208401846131c7565b61095b9161320d565b600c820180546001600160a01b03191660609290921c9190911790556000600e820155505050565b6109e861099084806131c7565b8080601f01602080910402602001604051908101604052809392919081815260200183838082843760009201919091525050604080518082019091526006815265737472696e6760d01b602082015291506123b69050565b15610a17576109fa60208401846131c7565b600b830191610a0a919083613290565b506001600e820155505050565b610a7a610a2484806131c7565b8080601f016020809104026020016040519081016040528093929190818152602001838380828437600092019190915250506040805180820190915260048152631d5a5b9d60e21b602082015291506123b69050565b15610109576000610acb610a9160208601866131c7565b8080601f0160208091040260200160405190810160405280939291908181526020018383808284376000920191909152506119b792505050565b600d830155506002600e8201555b505050565b606080836101c00151600003610bb1576101808401516040516001600160a01b03918216602482015290861690349085906044015b60408051601f198184030181529082905291610b2e91613350565b60408051918290039091206020830180516001600160e01b03166001600160e01b031990921691909117905251610b659190613350565b60006040518083038185875af1925050503d8060008114610ba2576040519150601f19603f3d011682016040523d82523d6000602084013e610ba7565b606091505b509150610d4a9050565b836101c00151600103610c4a576101608401516040805160208082019092526000905281519101207fc5d2460186f7233c927e7db2dcc703c0e500b653ca82273b7bfad8045d85a47003610c2857604080516004815260248101918290526001600160a01b03871691349190610b2e908790613350565b846001600160a01b03163484866101600151604051602401610b139190612c10565b836101c00151600203610d4a57836101a00151600003610c8d57604080516004815260248101918290526001600160a01b03871691349190610b2e908790613350565b846001600160a01b03163484866101a00151604051602401610cb191815260200190565b60408051601f198184030181529082905291610ccc91613350565b60408051918290039091206020830180516001600160e01b03166001600160e01b031990921691909117905251610d039190613350565b60006040518083038185875af1925050503d8060008114610d40576040519150601f19603f3d011682016040523d82523d6000602084013e610d45565b606091505b509150505b80806020019051810190610d5e919061315a565b61014085015180516020918201208251918301919091209193501460008054911515600160a01b0260ff60a01b19909216919091179055509392505050565b6000610dab8284018461336c565b905060005b8151811015611154576002828281518110610dcd57610dcd613055565b60200260200101516002811115610de657610de6612cac565b036111425760028181548110610dfe57610dfe613055565b90600052602060002090600f0201600601546000036110d4576110cf60028281548110610e2d57610e2d613055565b6000918252602091829020604080516101e081018252600f9093029091018054835260018101546001600160a01b039081169484019490945260028082015490941691830191909152600381015460608301526004810154608083015260058101549192909160a084019160ff90911690811115610ead57610ead612cac565b6002811115610ebe57610ebe612cac565b8152600682015460208201526007820154604082015260088201546001600160a01b03166060820152600982018054608090920191610efc9061306b565b80601f0160208091040260200160405190810160405280929190818152602001828054610f289061306b565b8015610f755780601f10610f4a57610100808354040283529160200191610f75565b820191906000526020600020905b815481529060010190602001808311610f5857829003601f168201915b50505050508152602001600a82018054610f8e9061306b565b80601f0160208091040260200160405190810160405280929190818152602001828054610fba9061306b565b80156110075780601f10610fdc57610100808354040283529160200191611007565b820191906000526020600020905b815481529060010190602001808311610fea57829003601f168201915b50505050508152602001600b820180546110209061306b565b80601f016020809104026020016040519081016040528092919081815260200182805461104c9061306b565b80156110995780601f1061106e57610100808354040283529160200191611099565b820191906000526020600020905b81548152906001019060200180831161107c57829003601f168201915b5050509183525050600c8201546001600160a01b03166020820152600d8201546040820152600e909101546060909101526123cc565b611142565b600281815481106110e7576110e7613055565b90600052602060002090600f02016006015460010361114257600061110b8261037c565b9050801561112e5761112960028381548110610e2d57610e2d613055565b611140565b60008281526004602052604090204290555b505b8061114c8161342e565b915050610db0565b50505050565b6111626127dd565b6002828154811061117557611175613055565b6000918252602091829020604080516101e081018252600f9093029091018054835260018101546001600160a01b039081169484019490945260028082015490941691830191909152600381015460608301526004810154608083015260058101549192909160a084019160ff909116908111156111f5576111f5612cac565b600281111561120657611206612cac565b8152600682015460208201526007820154604082015260088201546001600160a01b031660608201526009820180546080909201916112449061306b565b80601f01602080910402602001604051908101604052809291908181526020018280546112709061306b565b80156112bd5780601f10611292576101008083540402835291602001916112bd565b820191906000526020600020905b8154815290600101906020018083116112a057829003601f168201915b50505050508152602001600a820180546112d69061306b565b80601f01602080910402602001604051908101604052809291908181526020018280546113029061306b565b801561134f5780601f106113245761010080835404028352916020019161134f565b820191906000526020600020905b81548152906001019060200180831161133257829003601f168201915b50505050508152602001600b820180546113689061306b565b80601f01602080910402602001604051908101604052809291908181526020018280546113949061306b565b80156113e15780601f106113b6576101008083540402835291602001916113e1565b820191906000526020600020905b8154815290600101906020018083116113c457829003601f168201915b5050509183525050600c8201546001600160a01b03166020820152600d8201546040820152600e9091015460609091015292915050565b606081015160009061142a8142613447565b84109150505b92915050565b6001546000908190156114e85760005b6002548110156114e65760006001828154811061146557611465613055565b90600052602060002090602091828204019190069054906101000a900460ff16600281111561149657611496612cac565b036114d4576000600282815481106114b0576114b0613055565b90600052602060002090600f020160040154905080836114d0919061345a565b9250505b806114de8161342e565b915050611446565b505b919050565b600060606000600180548060200260200160405190810160405280929190818152602001828054801561156f57602002820191906000526020600020906000905b82829054906101000a900460ff16600281111561154d5761154d612cac565b81526020600192830181810494850194909303909202910180841161152e5790505b505050505090506000805b60015481101561198b5760006001828154811061159957611599613055565b90600052602060002090602091828204019190069054906101000a900460ff1660028111156115ca576115ca612cac565b0361197957600281815481106115e2576115e2613055565b90600052602060002090600f0201600601546000036118df576118d86002828154811061161157611611613055565b90600052602060002090600f0201600701546002838154811061163657611636613055565b6000918252602091829020604080516101e081018252600f9093029091018054835260018101546001600160a01b039081169484019490945260028082015490941691830191909152600381015460608301526004810154608083015260058101549192909160a084019160ff909116908111156116b6576116b6612cac565b60028111156116c7576116c7612cac565b8152600682015460208201526007820154604082015260088201546001600160a01b031660608201526009820180546080909201916117059061306b565b80601f01602080910402602001604051908101604052809291908181526020018280546117319061306b565b801561177e5780601f106117535761010080835404028352916020019161177e565b820191906000526020600020905b81548152906001019060200180831161176157829003601f168201915b50505050508152602001600a820180546117979061306b565b80601f01602080910402602001604051908101604052809291908181526020018280546117c39061306b565b80156118105780601f106117e557610100808354040283529160200191611810565b820191906000526020600020905b8154815290600101906020018083116117f357829003601f168201915b50505050508152602001600b820180546118299061306b565b80601f01602080910402602001604051908101604052809291908181526020018280546118559061306b565b80156118a25780601f10611877576101008083540402835291602001916118a2565b820191906000526020600020905b81548152906001019060200180831161188557829003601f168201915b5050509183525050600c8201546001600160a01b03166020820152600d8201546040820152600e90910154606090910152611418565b915061192b565b600281815481106118f2576118f2613055565b90600052602060002090600f02016006015460010361192b57600081815260046020526040902054603c906119279042613447565b1191505b81156119795760019450600283828151811061194957611949613055565b6020026020010190600281111561196257611962612cac565b9081600281111561197557611975612cac565b9052505b806119838161342e565b91505061157a565b508160405160200161199d919061346d565b604051602081830303815290604052925050509250929050565b60008082815b8151811015611a525760008183516119d59190613447565b905060008383815181106119eb576119eb613055565b01602001516001600160f81b03198116915060f81c6000611a0d603083613447565b9050611a1a600185613447565b611a2590600a61359c565b611a2f90826135a8565b611a39908861345a565b9650505050508080611a4a9061342e565b9150506119bd565b50909392505050565b60606002805480602002602001604051908101604052809291908181526020016000905b82821015611d37576000848152602090819020604080516101e081018252600f86029092018054835260018101546001600160a01b039081169484019490945260028082015490941691830191909152600381015460608301526004810154608083015260058101549192909160a084019160ff90911690811115611b0657611b06612cac565b6002811115611b1757611b17612cac565b8152600682015460208201526007820154604082015260088201546001600160a01b03166060820152600982018054608090920191611b559061306b565b80601f0160208091040260200160405190810160405280929190818152602001828054611b819061306b565b8015611bce5780601f10611ba357610100808354040283529160200191611bce565b820191906000526020600020905b815481529060010190602001808311611bb157829003601f168201915b50505050508152602001600a82018054611be79061306b565b80601f0160208091040260200160405190810160405280929190818152602001828054611c139061306b565b8015611c605780601f10611c3557610100808354040283529160200191611c60565b820191906000526020600020905b815481529060010190602001808311611c4357829003601f168201915b50505050508152602001600b82018054611c799061306b565b80601f0160208091040260200160405190810160405280929190818152602001828054611ca59061306b565b8015611cf25780601f10611cc757610100808354040283529160200191611cf2565b820191906000526020600020905b815481529060010190602001808311611cd557829003601f168201915b5050509183525050600c8201546001600160a01b0316602080830191909152600d8301546040830152600e909201546060909101529082526001929092019101611a7f565b50505050905090565b611d486127dd565b611d506127dd565b6001600160a01b038416610100820152610120810183905261012c60e0820152600060c0820181905260a08201819052506001600160a01b039586166020828101919091529490951660408087019190915260008652426060870152670de0b6b3a764000060808701528051808201909152600c81526b48656c6c6f20576f726c642160a01b9481019490945250505061014082015290565b604051600090309034908381818185875af1925050503d8060008114611e2b576040519150601f19603f3d011682016040523d82523d6000602084013e611e30565b606091505b5050905080611e7b5760405162461bcd60e51b8152602060048201526012602482015271151c985b9cd858dd1a5bdb8811985a5b195960721b60448201526064015b60405180910390fd5b60408051338152306020820152348183015290517f7db7852b30fc413c4a90995f03d9f21e64c45d0ddc8324a8ce4c730a051cbf829181900360600190a1611ec16127dd565b6002548152600060a0820181905250336020808301919091526001600160a01b038b8116604080850191909152426060850181905284516000908152600485528290205534608085015260c084018c905260e084018b905290891661010084015261012083018890528051601f8701839004830281018301909152858152908690869081908401838280828437600092018290525061014086019490945250506002805460018181018355938290528451600f9091027f405787fa12a823e0f2b7631cc41b3ba8828b3321ca811111fa75cd3aa3bb5ace810191825560208601517f405787fa12a823e0f2b7631cc41b3ba8828b3321ca811111fa75cd3aa3bb5acf820180546001600160a01b039283166001600160a01b03199182161790915560408801517f405787fa12a823e0f2b7631cc41b3ba8828b3321ca811111fa75cd3aa3bb5ad08401805491909316911617905560608601517f405787fa12a823e0f2b7631cc41b3ba8828b3321ca811111fa75cd3aa3bb5ad182015560808601517f405787fa12a823e0f2b7631cc41b3ba8828b3321ca811111fa75cd3aa3bb5ad282015560a08601517f405787fa12a823e0f2b7631cc41b3ba8828b3321ca811111fa75cd3aa3bb5ad3909101805487969395509193909260ff19909216919084908111156120b4576120b4612cac565b021790555060c0820151600682015560e082015160078201556101008201516008820180546001600160a01b0319166001600160a01b03909216919091179055610120820151600982019061210990826135bf565b50610140820151600a82019061211f90826135bf565b50610160820151600b82019061213590826135bf565b50610180820151600c820180546001600160a01b0319166001600160a01b039092169190911790556101a0820151600d8201556101c090910151600e90910155805161218290849061089c565b80516005556040517fb17b44330c62225e3bb8543c9f429f4f30d9c5ef44fbb0519ae8c9d4a35636f6906121b7908390612e0a565b60405180910390a150506001805480820182556000919091527fb10e2d527612073b26eecdfd717e6a320cf44b4afac2b0732d9fcbe2b7fa0cf660208204018054601f9092166101000a60ff021990911690555050505050505050565b606060006122238360026135a8565b61222e90600261345a565b6001600160401b0381111561224557612245612913565b6040519080825280601f01601f19166020018201604052801561226f576020820181803683370190505b509050600360fc1b8160008151811061228a5761228a613055565b60200101906001600160f81b031916908160001a905350600f60fb1b816001815181106122b9576122b9613055565b60200101906001600160f81b031916908160001a90535060006122dd8460026135a8565b6122e890600161345a565b90505b6001811115612360576f181899199a1a9b1b9c1cb0b131b232b360811b85600f166010811061231c5761231c613055565b1a60f81b82828151811061233257612332613055565b60200101906001600160f81b031916908160001a90535060049490941c936123598161367e565b90506122eb565b5083156123af5760405162461bcd60e51b815260206004820181905260248201527f537472696e67733a20686578206c656e67746820696e73756666696369656e746044820152606401611e72565b9392505050565b8051602091820120825192909101919091201490565b604081810151608083015183519251919290916000906001600160a01b0385169084908381818185875af1925050503d8060008114612427576040519150601f19603f3d011682016040523d82523d6000602084013e61242c565b606091505b50509050806124895760405162461bcd60e51b815260206004820152602360248201527f5472616e73616374696f6e204661696c65642e20436865636b2047617320546160448201526237359760e91b6064820152608401611e72565b604080513381526001600160a01b03861660208201529081018490527f7db7852b30fc413c4a90995f03d9f21e64c45d0ddc8324a8ce4c730a051cbf829060600160405180910390a1426060860190815260038054600181810183556000929092528751600f9091027fc2575a0e9e593c00f959f8c92f12db2869c3395a3b0502d05e2516446f71f85b810191825560208901517fc2575a0e9e593c00f959f8c92f12db2869c3395a3b0502d05e2516446f71f85c820180546001600160a01b039283166001600160a01b03199182161790915560408b01517fc2575a0e9e593c00f959f8c92f12db2869c3395a3b0502d05e2516446f71f85d8401805491909316911617905592517fc2575a0e9e593c00f959f8c92f12db2869c3395a3b0502d05e2516446f71f85e84015560808801517fc2575a0e9e593c00f959f8c92f12db2869c3395a3b0502d05e2516446f71f85f84015560a08801517fc2575a0e9e593c00f959f8c92f12db2869c3395a3b0502d05e2516446f71f86090930180548994859490929160ff19169083600281111561262857612628612cac565b021790555060c0820151600682015560e082015160078201556101008201516008820180546001600160a01b0319166001600160a01b03909216919091179055610120820151600982019061267d90826135bf565b50610140820151600a82019061269390826135bf565b50610160820151600b8201906126a990826135bf565b50610180820151600c820180546001600160a01b0319166001600160a01b039092169190911790556101a0820151600d8201556101c090910151600e90910155600180548190859081106126ff576126ff613055565b90600052602060002090602091828204019190066101000a81548160ff0219169083600281111561273257612732612cac565b021790555060016002848154811061274c5761274c613055565b600091825260209091206005600f9092020101805460ff1916600183600281111561277957612779612cac565b02179055507fc7566255f96928d99ac1c7d9e117dc93fb04c93e60237915ae63d3f7ebe1235a600284815481106127b2576127b2613055565b90600052602060002090600f02016040516127cd9190613695565b60405180910390a1505050505050565b604080516101e08101825260008082526020820181905291810182905260608101829052608081018290529060a08201908152602001600081526020016000815260200160006001600160a01b0316815260200160608152602001606081526020016060815260200160006001600160a01b0316815260200160008152602001600081525090565b60006020828403121561287757600080fd5b5035919050565b806040810183101561143057600080fd5b600080604083850312156128a257600080fd5b82356001600160401b038111156128b857600080fd5b6128c48582860161287e565b95602094909401359450505050565b6001600160a01b03811681146128e857600080fd5b50565b80356114e8816128d3565b60006020828403121561290857600080fd5b81356123af816128d3565b634e487b7160e01b600052604160045260246000fd5b6040516101e081016001600160401b038111828210171561294c5761294c612913565b60405290565b604051601f8201601f191681016001600160401b038111828210171561297a5761297a612913565b604052919050565b8035600381106114e857600080fd5b60006001600160401b038211156129aa576129aa612913565b50601f01601f191660200190565b600082601f8301126129c957600080fd5b81356129dc6129d782612991565b612952565b8181528460208386010111156129f157600080fd5b816020850160208301376000918101602001919091529392505050565b60006101e08284031215612a2157600080fd5b612a29612929565b905081358152612a3b602083016128eb565b6020820152612a4c604083016128eb565b60408201526060820135606082015260808201356080820152612a7160a08301612982565b60a082015260c082013560c082015260e082013560e0820152610100612a988184016128eb565b90820152610120828101356001600160401b0380821115612ab857600080fd5b612ac4868387016129b8565b83850152610140925082850135915080821115612ae057600080fd5b612aec868387016129b8565b83850152610160925082850135915080821115612b0857600080fd5b50612b15858286016129b8565b828401525050610180612b298184016128eb565b908201526101a082810135908201526101c09182013591810191909152919050565b600080600060608486031215612b6057600080fd5b8335612b6b816128d3565b925060208401356001600160401b0380821115612b8757600080fd5b612b9387838801612a0e565b93506040860135915080821115612ba957600080fd5b50612bb6868287016129b8565b9150509250925092565b60005b83811015612bdb578181015183820152602001612bc3565b50506000910152565b60008151808452612bfc816020860160208601612bc0565b601f01601f19169290920160200192915050565b6020815260006123af6020830184612be4565b60008083601f840112612c3557600080fd5b5081356001600160401b03811115612c4c57600080fd5b602083019150836020828501011115612c6457600080fd5b9250929050565b60008060208385031215612c7e57600080fd5b82356001600160401b03811115612c9457600080fd5b612ca085828601612c23565b90969095509350505050565b634e487b7160e01b600052602160045260246000fd5b60038110612ce057634e487b7160e01b600052602160045260246000fd5b9052565b60006101e0825184526020830151612d0760208601826001600160a01b03169052565b506040830151612d2260408601826001600160a01b03169052565b50606083015160608501526080830151608085015260a0830151612d4960a0860182612cc2565b5060c083015160c085015260e083015160e085015261010080840151612d79828701826001600160a01b03169052565b5050610120808401518282870152612d9383870182612be4565b925050506101408084015185830382870152612daf8382612be4565b925050506101608084015185830382870152612dcb8382612be4565b9250505061018080840151612dea828701826001600160a01b03169052565b50506101a083810151908501526101c09283015192909301919091525090565b6020815260006123af6020830184612ce4565b60008060408385031215612e3057600080fd5b8235915060208301356001600160401b03811115612e4d57600080fd5b612e5985828601612a0e565b9150509250929050565b8215158152604060208201526000612e7e6040830184612be4565b949350505050565b600060208284031215612e9857600080fd5b81356001600160401b03811115612eae57600080fd5b612e7e848285016129b8565b6000602080830181845280855180835260408601915060408160051b870101925083870160005b82811015612f0f57603f19888603018452612efd858351612ce4565b94509285019290850190600101612ee1565b5092979650505050505050565b60008060008060808587031215612f3257600080fd5b8435612f3d816128d3565b93506020850135612f4d816128d3565b92506040850135612f5d816128d3565b915060608501356001600160401b03811115612f7857600080fd5b612f84878288016129b8565b91505092959194509250565b60008060008060008060008060e0898b031215612fac57600080fd5b8835612fb7816128d3565b975060208901359650604089013595506060890135612fd5816128d3565b945060808901356001600160401b0380821115612ff157600080fd5b612ffd8c838d016129b8565b955060a08b013591508082111561301357600080fd5b61301f8c838d01612c23565b909550935060c08b013591508082111561303857600080fd5b506130458b828c0161287e565b9150509295985092959890939650565b634e487b7160e01b600052603260045260246000fd5b600181811c9082168061307f57607f821691505b6020821081036114e657634e487b7160e01b600052602260045260246000fd5b600081546130ac8161306b565b8085526020600183811680156130c957600181146130e357613111565b60ff1985168884015283151560051b880183019550613111565b866000528260002060005b858110156131095781548a82018601529083019084016130ee565b890184019650505b505050505092915050565b60408152600061312f6040830185612be4565b8281036020840152610893818561309f565b60006020828403121561315357600080fd5b5051919050565b60006020828403121561316c57600080fd5b81516001600160401b0381111561318257600080fd5b8201601f8101841361319357600080fd5b80516131a16129d782612991565b8181528560208385010111156131b657600080fd5b610893826020830160208601612bc0565b6000808335601e198436030181126131de57600080fd5b8301803591506001600160401b038211156131f857600080fd5b602001915036819003821315612c6457600080fd5b6bffffffffffffffffffffffff19813581811691601485101561323a5780818660140360031b1b83161692505b505092915050565b601f821115610ad957600081815260208120601f850160051c810160208610156132695750805b601f850160051c820191505b8181101561328857828155600101613275565b505050505050565b6001600160401b038311156132a7576132a7612913565b6132bb836132b5835461306b565b83613242565b6000601f8411600181146132ef57600085156132d75750838201355b600019600387901b1c1916600186901b178355613349565b600083815260209020601f19861690835b828110156133205786850135825560209485019460019092019101613300565b508682101561333d5760001960f88860031b161c19848701351681555b505060018560011b0183555b5050505050565b60008251613362818460208701612bc0565b9190910192915050565b6000602080838503121561337f57600080fd5b82356001600160401b038082111561339657600080fd5b818501915085601f8301126133aa57600080fd5b8135818111156133bc576133bc612913565b8060051b91506133cd848301612952565b81815291830184019184810190888411156133e757600080fd5b938501935b8385101561340c576133fd85612982565b825293850193908501906133ec565b98975050505050505050565b634e487b7160e01b600052601160045260246000fd5b60006001820161344057613440613418565b5060010190565b8181038181111561143057611430613418565b8082018082111561143057611430613418565b6020808252825182820181905260009190848201906040850190845b818110156134ac5761349c838551612cc2565b9284019291840191600101613489565b50909695505050505050565b600181815b808511156134f35781600019048211156134d9576134d9613418565b808516156134e657918102915b93841c93908002906134bd565b509250929050565b60008261350a57506001611430565b8161351757506000611430565b816001811461352d576002811461353757613553565b6001915050611430565b60ff84111561354857613548613418565b50506001821b611430565b5060208310610133831016604e8410600b8410161715613576575081810a611430565b61358083836134b8565b806000190482111561359457613594613418565b029392505050565b60006123af83836134fb565b808202811582820484141761143057611430613418565b81516001600160401b038111156135d8576135d8612913565b6135ec816135e6845461306b565b84613242565b602080601f83116001811461362157600084156136095750858301515b600019600386901b1c1916600185901b178555613288565b600085815260208120601f198616915b8281101561365057888601518255948401946001909101908401613631565b508582101561366e5787850151600019600388901b60f8161c191681555b5050505050600190811b01905550565b60008161368d5761368d613418565b506000190190565b602081528154602082015260006136b660018401546001600160a01b031690565b6001600160a01b039081166040840152600284015416606083015260038301546080830152600483015460a0830152600583015460ff166136fa60c0840182612cc2565b50600683015460e0830152600783015461010083015260088301546001600160a01b03166101208301526101e0610140830181905261374061020084016009860161309f565b601f19808583030161016086015261375b82600a880161309f565b915080858303016101808601525061377681600b870161309f565b905061378c600c8601546001600160a01b031690565b6001600160a01b03166101a0850152600d8501546101c0850152600e90940154920191909152509056fea2646970667358221220634ebc29cba29f6a15922f1114901ad5d9eed9173867f83c17c98e719b010e0164736f6c63430008130033",
  "devdoc": {
    "kind": "dev",
    "methods": {
      "performUpkeep(bytes)": {
        "details": "The input to this method should not be trusted, and the caller of the method should not even be restricted to any single registry. Anyone should be able call it, and the input should be validated, there is no guarantee that the data passed in is the performData returned from checkUpkeep. This could happen due to malicious keepers, racing keepers, or simply a state change while the performUpkeep transaction is waiting for confirmation. Always validate the data passed in.",
        "params": {
          "performData": "is the data which was passed back from the checkData simulation. If it is encoded, it can easily be decoded into other types by calling `abi.decode`. This data should not be trusted, and should be validated against the contract's current state."
        }
      }
    },
    "version": 1
  },
  "userdoc": {
    "kind": "user",
    "methods": {
      "performUpkeep(bytes)": {
        "notice": "method that is actually executed by the keepers, via the registry. The data returned by the checkUpkeep simulation will be passed into this method to actually be executed."
      }
    },
    "version": 1
  },
  "storageLayout": {
    "storage": [
      {
        "astId": 3560,
        "contract": "contracts/FundManager.sol:FundManager",
        "label": "getFunction",
        "offset": 0,
        "slot": "0",
        "type": "t_contract(GetFunction)4833"
      },
      {
        "astId": 3588,
        "contract": "contracts/FundManager.sol:FundManager",
        "label": "answering",
        "offset": 20,
        "slot": "0",
        "type": "t_bool"
      },
      {
        "astId": 3592,
        "contract": "contracts/FundManager.sol:FundManager",
        "label": "pendingTxIndex",
        "offset": 0,
        "slot": "1",
        "type": "t_array(t_enum(status)3514)dyn_storage"
      },
      {
        "astId": 3596,
        "contract": "contracts/FundManager.sol:FundManager",
        "label": "txLogHistory",
        "offset": 0,
        "slot": "2",
        "type": "t_array(t_struct(txForm)3546_storage)dyn_storage"
      },
      {
        "astId": 3600,
        "contract": "contracts/FundManager.sol:FundManager",
        "label": "txLogTransferred",
        "offset": 0,
        "slot": "3",
        "type": "t_array(t_struct(txForm)3546_storage)dyn_storage"
      },
      {
        "astId": 3604,
        "contract": "contracts/FundManager.sol:FundManager",
        "label": "lastQuery",
        "offset": 0,
        "slot": "4",
        "type": "t_mapping(t_uint256,t_uint256)"
      },
      {
        "astId": 3606,
        "contract": "contracts/FundManager.sol:FundManager",
        "label": "lastIndex",
        "offset": 0,
        "slot": "5",
        "type": "t_uint256"
      }
    ],
    "types": {
      "t_address": {
        "encoding": "inplace",
        "label": "address",
        "numberOfBytes": "20"
      },
      "t_address_payable": {
        "encoding": "inplace",
        "label": "address payable",
        "numberOfBytes": "20"
      },
      "t_array(t_enum(status)3514)dyn_storage": {
        "base": "t_enum(status)3514",
        "encoding": "dynamic_array",
        "label": "enum status[]",
        "numberOfBytes": "32"
      },
      "t_array(t_struct(txForm)3546_storage)dyn_storage": {
        "base": "t_struct(txForm)3546_storage",
        "encoding": "dynamic_array",
        "label": "struct txForm[]",
        "numberOfBytes": "32"
      },
      "t_bool": {
        "encoding": "inplace",
        "label": "bool",
        "numberOfBytes": "1"
      },
      "t_contract(GetFunction)4833": {
        "encoding": "inplace",
        "label": "contract GetFunction",
        "numberOfBytes": "20"
      },
      "t_enum(status)3514": {
        "encoding": "inplace",
        "label": "enum status",
        "numberOfBytes": "1"
      },
      "t_mapping(t_uint256,t_uint256)": {
        "encoding": "mapping",
        "key": "t_uint256",
        "label": "mapping(uint256 => uint256)",
        "numberOfBytes": "32",
        "value": "t_uint256"
      },
      "t_string_storage": {
        "encoding": "bytes",
        "label": "string",
        "numberOfBytes": "32"
      },
      "t_struct(txForm)3546_storage": {
        "encoding": "inplace",
        "label": "struct txForm",
        "members": [
          {
            "astId": 3516,
            "contract": "contracts/FundManager.sol:FundManager",
            "label": "index",
            "offset": 0,
            "slot": "0",
            "type": "t_uint256"
          },
          {
            "astId": 3518,
            "contract": "contracts/FundManager.sol:FundManager",
            "label": "addressFrom",
            "offset": 0,
            "slot": "1",
            "type": "t_address"
          },
          {
            "astId": 3520,
            "contract": "contracts/FundManager.sol:FundManager",
            "label": "addressTo",
            "offset": 0,
            "slot": "2",
            "type": "t_address_payable"
          },
          {
            "astId": 3522,
            "contract": "contracts/FundManager.sol:FundManager",
            "label": "timestamp",
            "offset": 0,
            "slot": "3",
            "type": "t_uint256"
          },
          {
            "astId": 3524,
            "contract": "contracts/FundManager.sol:FundManager",
            "label": "txValue",
            "offset": 0,
            "slot": "4",
            "type": "t_uint256"
          },
          {
            "astId": 3527,
            "contract": "contracts/FundManager.sol:FundManager",
            "label": "_status",
            "offset": 0,
            "slot": "5",
            "type": "t_enum(status)3514"
          },
          {
            "astId": 3529,
            "contract": "contracts/FundManager.sol:FundManager",
            "label": "selector",
            "offset": 0,
            "slot": "6",
            "type": "t_uint256"
          },
          {
            "astId": 3531,
            "contract": "contracts/FundManager.sol:FundManager",
            "label": "intervalTT",
            "offset": 0,
            "slot": "7",
            "type": "t_uint256"
          },
          {
            "astId": 3533,
            "contract": "contracts/FundManager.sol:FundManager",
            "label": "addCQ",
            "offset": 0,
            "slot": "8",
            "type": "t_address"
          },
          {
            "astId": 3535,
            "contract": "contracts/FundManager.sol:FundManager",
            "label": "indexCQ",
            "offset": 0,
            "slot": "9",
            "type": "t_string_storage"
          },
          {
            "astId": 3537,
            "contract": "contracts/FundManager.sol:FundManager",
            "label": "expectedCQ",
            "offset": 0,
            "slot": "10",
            "type": "t_string_storage"
          },
          {
            "astId": 3539,
            "contract": "contracts/FundManager.sol:FundManager",
            "label": "argSTR",
            "offset": 0,
            "slot": "11",
            "type": "t_string_storage"
          },
          {
            "astId": 3541,
            "contract": "contracts/FundManager.sol:FundManager",
            "label": "argAD",
            "offset": 0,
            "slot": "12",
            "type": "t_address"
          },
          {
            "astId": 3543,
            "contract": "contracts/FundManager.sol:FundManager",
            "label": "argINT",
            "offset": 0,
            "slot": "13",
            "type": "t_uint256"
          },
          {
            "astId": 3545,
            "contract": "contracts/FundManager.sol:FundManager",
            "label": "argType",
            "offset": 0,
            "slot": "14",
            "type": "t_uint256"
          }
        ],
        "numberOfBytes": "480"
      },
      "t_uint256": {
        "encoding": "inplace",
        "label": "uint256",
        "numberOfBytes": "32"
      }
    }
  }
}