{
  "address": "0xaCFA54c30A692FC6dB26Aec9C50498bb20d41902",
  "abi": [
    {
      "inputs": [
        {
          "internalType": "uint64",
          "name": "subscriptionId",
          "type": "uint64"
        }
      ],
      "stateMutability": "nonpayable",
      "type": "constructor"
    },
    {
      "inputs": [],
      "name": "EmptyArgs",
      "type": "error"
    },
    {
      "inputs": [],
      "name": "EmptySource",
      "type": "error"
    },
    {
      "inputs": [],
      "name": "NoInlineSecrets",
      "type": "error"
    },
    {
      "inputs": [],
      "name": "OnlyRouterCanFulfill",
      "type": "error"
    },
    {
      "inputs": [
        {
          "internalType": "bytes32",
          "name": "requestId",
          "type": "bytes32"
        }
      ],
      "name": "UnexpectedRequestID",
      "type": "error"
    },
    {
      "anonymous": false,
      "inputs": [
        {
          "indexed": true,
          "internalType": "bytes32",
          "name": "id",
          "type": "bytes32"
        }
      ],
      "name": "RequestFulfilled",
      "type": "event"
    },
    {
      "anonymous": false,
      "inputs": [
        {
          "indexed": true,
          "internalType": "bytes32",
          "name": "id",
          "type": "bytes32"
        }
      ],
      "name": "RequestSent",
      "type": "event"
    },
    {
      "anonymous": false,
      "inputs": [
        {
          "indexed": true,
          "internalType": "bytes32",
          "name": "requestId",
          "type": "bytes32"
        },
        {
          "indexed": false,
          "internalType": "string",
          "name": "answer",
          "type": "string"
        },
        {
          "indexed": false,
          "internalType": "bytes",
          "name": "response",
          "type": "bytes"
        },
        {
          "indexed": false,
          "internalType": "bytes",
          "name": "err",
          "type": "bytes"
        }
      ],
      "name": "Response",
      "type": "event"
    },
    {
      "inputs": [],
      "name": "_answer",
      "outputs": [
        {
          "internalType": "string",
          "name": "",
          "type": "string"
        }
      ],
      "stateMutability": "view",
      "type": "function"
    },
    {
      "inputs": [
        {
          "internalType": "string",
          "name": "_address",
          "type": "string"
        },
        {
          "internalType": "string",
          "name": "_index",
          "type": "string"
        }
      ],
      "name": "getFun",
      "outputs": [
        {
          "internalType": "bytes32",
          "name": "requestId",
          "type": "bytes32"
        }
      ],
      "stateMutability": "nonpayable",
      "type": "function"
    },
    {
      "inputs": [
        {
          "internalType": "bytes32",
          "name": "requestId",
          "type": "bytes32"
        },
        {
          "internalType": "bytes",
          "name": "response",
          "type": "bytes"
        },
        {
          "internalType": "bytes",
          "name": "err",
          "type": "bytes"
        }
      ],
      "name": "handleOracleFulfillment",
      "outputs": [],
      "stateMutability": "nonpayable",
      "type": "function"
    },
    {
      "inputs": [],
      "name": "s_lastError",
      "outputs": [
        {
          "internalType": "bytes",
          "name": "",
          "type": "bytes"
        }
      ],
      "stateMutability": "view",
      "type": "function"
    },
    {
      "inputs": [],
      "name": "s_lastRequestId",
      "outputs": [
        {
          "internalType": "bytes32",
          "name": "",
          "type": "bytes32"
        }
      ],
      "stateMutability": "view",
      "type": "function"
    },
    {
      "inputs": [],
      "name": "s_lastResponse",
      "outputs": [
        {
          "internalType": "bytes",
          "name": "",
          "type": "bytes"
        }
      ],
      "stateMutability": "view",
      "type": "function"
    },
    {
      "inputs": [],
      "name": "s_subscriptionId",
      "outputs": [
        {
          "internalType": "uint64",
          "name": "",
          "type": "uint64"
        }
      ],
      "stateMutability": "view",
      "type": "function"
    },
    {
      "inputs": [],
      "name": "source",
      "outputs": [
        {
          "internalType": "string",
          "name": "",
          "type": "string"
        }
      ],
      "stateMutability": "view",
      "type": "function"
    }
  ],
  "transactionHash": "0x7657cab6f6154d0167cae660a9c4c57468ef804082c1ba05ca2a6bba8aa4131f",
  "args": [
    1995
  ],
  "numDeployments": 1,
  "solcInputHash": "7cc28131e4c371bf6a35b119e80d4a63",
  "bytecode": "0x600380546001600160a01b03191673b83e47c2bc239b3bf370bc41e1459a34b41238d01790557f66756e2d657468657265756d2d7365706f6c69612d31000000000000000000006004556005805463ffffffff1916620493e017905561030060405261022360a0818152906200167160c03960069062000080908262000196565b503480156200008e57600080fd5b506040516200189438038062001894833981016040819052620000b19162000262565b6003546001600160a01b0316608052600580546001600160401b0390921664010000000002600160201b600160601b031990921691909117905562000294565b634e487b7160e01b600052604160045260246000fd5b600181811c908216806200011c57607f821691505b6020821081036200013d57634e487b7160e01b600052602260045260246000fd5b50919050565b601f8211156200019157600081815260208120601f850160051c810160208610156200016c5750805b601f850160051c820191505b818110156200018d5782815560010162000178565b5050505b505050565b81516001600160401b03811115620001b257620001b2620000f1565b620001ca81620001c3845462000107565b8462000143565b602080601f831160018114620002025760008415620001e95750858301515b600019600386901b1c1916600185901b1785556200018d565b600085815260208120601f198616915b82811015620002335788860151825594840194600190910190840162000212565b5085821015620002525787850151600019600388901b60f8161c191681555b5050505050600190811b01905550565b6000602082840312156200027557600080fd5b81516001600160401b03811681146200028d57600080fd5b9392505050565b6080516113ba620002b76000396000818161013c01526107b501526113ba6000f3fe608060405234801561001057600080fd5b50600436106100885760003560e01c806367e828bf1161005b57806367e828bf146100e55780638ac00021146100ed578063b1e2174914610120578063cb4037221461012957600080fd5b80630ca761751461008d5780632a2fb838146100a25780633944ea3a146100c85780634b0795a8146100dd575b600080fd5b6100a061009b366004610e49565b610131565b005b6100b56100b0366004610eb5565b6101b5565b6040519081526020015b60405180910390f35b6100d0610354565b6040516100bf9190610f5e565b6100d06103e2565b6100d06103ef565b6005546101089064010000000090046001600160401b031681565b6040516001600160401b0390911681526020016100bf565b6100b560005481565b6100d06103fc565b336001600160a01b037f0000000000000000000000000000000000000000000000000000000000000000161461017a5760405163c6829f8360e01b815260040160405180910390fd5b610185838383610409565b60405183907f85e1543bf2f84fe80c6badbce3648c8539ad1df4d2b3d822938ca0538be727e690600090a2505050565b60408051600280825260608201909252600091829190816020015b60608152602001906001900390816101d057905050905083816000815181106101fb576101fb610f71565b6020026020010181905250828160018151811061021a5761021a610f71565b60200260200101819052506102666040805160e0810190915280600081526020016000815260200160008152602001606081526020016060815260200160608152602001606081525090565b6103036006805461027690610f87565b80601f01602080910402602001604051908101604052809291908181526020018280546102a290610f87565b80156102ef5780601f106102c4576101008083540402835291602001916102ef565b820191906000526020600020905b8154815290600101906020018083116102d257829003601f168201915b50505050508261049d90919063ffffffff16565b8151156103145761031481836104ae565b610344610320826104d8565b6005546004546001600160401b036401000000008304169163ffffffff16906107b0565b6000819055925050505b92915050565b6001805461036190610f87565b80601f016020809104026020016040519081016040528092919081815260200182805461038d90610f87565b80156103da5780601f106103af576101008083540402835291602001916103da565b820191906000526020600020905b8154815290600101906020018083116103bd57829003601f168201915b505050505081565b6002805461036190610f87565b6006805461036190610f87565b6007805461036190610f87565b82600054146104325760405163d068bf5b60e01b81526004810184905260240160405180910390fd5b600261043e828261100f565b50600161044b838261100f565b506007610458838261100f565b50827f160ed0aaffbef6885155188b91459cb5a97d5daadccf7561d8c46deea6641b506007600160026040516104909392919061114b565b60405180910390a2505050565b6104aa8260008084610882565b5050565b80516000036104d05760405163fe936cb760e01b815260040160405180910390fd5b60a090910152565b606060006104e7610100610900565b90506105206040518060400160405280600c81526020016b31b7b232a637b1b0ba34b7b760a11b8152508261092190919063ffffffff16565b825161053e9060028111156105375761053761118e565b829061093f565b6040805180820190915260088152676c616e677561676560c01b6020820152610568908290610921565b604083015161057f9080156105375761053761118e565b604080518082019091526006815265736f7572636560d01b60208201526105a7908290610921565b60608301516105b7908290610921565b60a0830151511561064b576040805180820190915260048152636172677360e01b60208201526105e8908290610921565b6105f181610978565b60005b8360a0015151811015610641576106318460a00151828151811061061a5761061a610f71565b60200260200101518361092190919063ffffffff16565b61063a816111ba565b90506105f4565b5061064b8161099c565b6080830151511561070f5760008360200151600281111561066e5761066e61118e565b0361068c5760405163a80d31f760e01b815260040160405180910390fd5b60408051808201909152600f81526e39b2b1b932ba39a637b1b0ba34b7b760891b60208201526106bd908290610921565b6106d6836020015160028111156105375761053761118e565b6040805180820190915260078152667365637265747360c81b60208201526106ff908290610921565b608083015161070f9082906109ba565b60c083015151156107a85760408051808201909152600981526862797465734172677360b81b6020820152610745908290610921565b61074e81610978565b60005b8360c001515181101561079e5761078e8460c00151828151811061077757610777610f71565b6020026020010151836109ba90919063ffffffff16565b610797816111ba565b9050610751565b506107a88161099c565b515192915050565b6000807f00000000000000000000000000000000000000000000000000000000000000006001600160a01b031663461d27628688600188886040518663ffffffff1660e01b81526004016108089594939291906111d3565b6020604051808303816000875af1158015610827573d6000803e3d6000fd5b505050506040513d601f19601f8201168201806040525081019061084b919061121c565b60405190915081907f1131472297a800fee664d1d89cfa8f7676ff07189ecc53f80bbb5f4969099db890600090a295945050505050565b80516000036108a4576040516322ce3edd60e01b815260040160405180910390fd5b838360028111156108b7576108b761118e565b908160028111156108ca576108ca61118e565b905250604084018280156108e0576108e061118e565b908180156108f0576108f061118e565b9052506060909301929092525050565b610908610d72565b805161091490836109c7565b5060006020820152919050565b61092e8260038351610a3e565b815161093a9082610b5d565b505050565b815161094c9060c2610b85565b506104aa828260405160200161096491815260200190565b6040516020818303038152906040526109ba565b610983816004610bee565b6001816020018181516109969190611235565b90525050565b6109a7816007610bee565b6001816020018181516109969190611248565b61092e8260028351610a3e565b6040805180820190915260608152600060208201526109e760208361125b565b15610a0f576109f760208361125b565b610a02906020611248565b610a0c9083611235565b91505b602080840183905260405180855260008152908184010181811015610a3357600080fd5b604052509192915050565b6017816001600160401b031611610a6a578251610a649060e0600585901b168317610b85565b50505050565b60ff816001600160401b031611610aaa578251610a92906018611fe0600586901b1617610b85565b508251610a64906001600160401b0383166001610c05565b61ffff816001600160401b031611610aeb578251610ad3906019611fe0600586901b1617610b85565b508251610a64906001600160401b0383166002610c05565b63ffffffff816001600160401b031611610b2e578251610b1690601a611fe0600586901b1617610b85565b508251610a64906001600160401b0383166004610c05565b8251610b4590601b611fe0600586901b1617610b85565b508251610a64906001600160401b0383166008610c05565b604080518082019091526060815260006020820152610b7e83838451610c8a565b9392505050565b6040805180820190915260608152600060208201528251516000610baa826001611235565b905084602001518210610bcb57610bcb85610bc683600261127d565b610d5b565b8451602083820101858153508051821115610be4578181525b5093949350505050565b815161093a90601f611fe0600585901b1617610b85565b6040805180820190915260608152600060208201528351516000610c298285611235565b90508560200151811115610c4657610c4686610bc683600261127d565b60006001610c5686610100611378565b610c609190611248565b90508651828101878319825116178152508051831115610c7e578281525b50959695505050505050565b6040805180820190915260608152600060208201528251821115610cad57600080fd5b8351516000610cbc8483611235565b90508560200151811115610cd957610cd986610bc683600261127d565b855180518382016020019160009180851115610cf3578482525b505050602086015b60208610610d335780518252610d12602083611235565b9150610d1f602082611235565b9050610d2c602087611248565b9550610cfb565b51815160001960208890036101000a0190811690199190911617905250849150509392505050565b8151610d6783836109c7565b50610a648382610b5d565b6040518060400160405280610d9a604051806040016040528060608152602001600081525090565b8152602001600081525090565b634e487b7160e01b600052604160045260246000fd5b600082601f830112610dce57600080fd5b81356001600160401b0380821115610de857610de8610da7565b604051601f8301601f19908116603f01168101908282118183101715610e1057610e10610da7565b81604052838152866020858801011115610e2957600080fd5b836020870160208301376000602085830101528094505050505092915050565b600080600060608486031215610e5e57600080fd5b8335925060208401356001600160401b0380821115610e7c57600080fd5b610e8887838801610dbd565b93506040860135915080821115610e9e57600080fd5b50610eab86828701610dbd565b9150509250925092565b60008060408385031215610ec857600080fd5b82356001600160401b0380821115610edf57600080fd5b610eeb86838701610dbd565b93506020850135915080821115610f0157600080fd5b50610f0e85828601610dbd565b9150509250929050565b6000815180845260005b81811015610f3e57602081850181015186830182015201610f22565b506000602082860101526020601f19601f83011685010191505092915050565b602081526000610b7e6020830184610f18565b634e487b7160e01b600052603260045260246000fd5b600181811c90821680610f9b57607f821691505b602082108103610fbb57634e487b7160e01b600052602260045260246000fd5b50919050565b601f82111561093a57600081815260208120601f850160051c81016020861015610fe85750805b601f850160051c820191505b8181101561100757828155600101610ff4565b505050505050565b81516001600160401b0381111561102857611028610da7565b61103c816110368454610f87565b84610fc1565b602080601f83116001811461107157600084156110595750858301515b600019600386901b1c1916600185901b178555611007565b600085815260208120601f198616915b828110156110a057888601518255948401946001909101908401611081565b50858210156110be5787850151600019600388901b60f8161c191681555b5050505050600190811b01905550565b600081546110db81610f87565b8085526020600183811680156110f8576001811461111257611140565b60ff1985168884015283151560051b880183019550611140565b866000528260002060005b858110156111385781548a820186015290830190840161111d565b890184019650505b505050505092915050565b60608152600061115e60608301866110ce565b828103602084015261117081866110ce565b9050828103604084015261118481856110ce565b9695505050505050565b634e487b7160e01b600052602160045260246000fd5b634e487b7160e01b600052601160045260246000fd5b6000600182016111cc576111cc6111a4565b5060010190565b6001600160401b038616815260a0602082015260006111f560a0830187610f18565b61ffff9590951660408301525063ffffffff92909216606083015260809091015292915050565b60006020828403121561122e57600080fd5b5051919050565b8082018082111561034e5761034e6111a4565b8181038181111561034e5761034e6111a4565b60008261127857634e487b7160e01b600052601260045260246000fd5b500690565b808202811582820484141761034e5761034e6111a4565b600181815b808511156112cf5781600019048211156112b5576112b56111a4565b808516156112c257918102915b93841c9390800290611299565b509250929050565b6000826112e65750600161034e565b816112f35750600061034e565b816001811461130957600281146113135761132f565b600191505061034e565b60ff841115611324576113246111a4565b50506001821b61034e565b5060208310610133831016604e8410600b8410161715611352575081810a61034e565b61135c8383611294565b8060001904821115611370576113706111a4565b029392505050565b6000610b7e83836112d756fea264697066735822122087257ff89ef23930e065f6e9f6b90aa50ad814e263e5df5a8f31ed3fb13d2bb864736f6c63430008130033636f6e7374205f61646472657373203d20617267735b305d3b636f6e7374205f696e646578203d20617267735b315d3b636f6e737420617069526573706f6e7365203d2061776169742046756e6374696f6e732e6d616b654874747052657175657374287b75726c3a206068747470733a2f2f616269646174612e6e65742f247b5f616464726573737d3f6e6574776f726b3d7365706f6c6961602c7d293b69662028617069526573706f6e73652e6572726f7229207b7468726f77204572726f72282752657175657374206661696c656427293b7d636f6e7374207b2064617461207d203d20617069526573706f6e73653b636f6e73742066756e44617461203d20646174615b22616269225d5b5f696e6465785d3b636f6e73742066756e4e616d65203d2066756e446174615b226e616d65225d3b6c65742066756e496e70203d2022223b666f72286c65742069203d20303b2069203c2066756e446174615b22696e70757473225d2e6c656e6774683b20692b2b20297b66756e496e70203d2066756e496e70202b2066756e446174615b22696e70757473225d5b695d5b2274797065225d202b20222c223b7d66756e496e70203d2066756e496e702e736c69636528302c66756e496e702e6c656e6774682d31293b66756e496e70203d20222822202b2066756e496e70202b202229223b72657475726e2046756e6374696f6e732e656e636f6465537472696e672866756e4e616d652b66756e496e70293b",
  "devdoc": {
    "kind": "dev",
    "methods": {
      "handleOracleFulfillment(bytes32,bytes,bytes)": {
        "details": "Either response or error parameter will be set, but never both.",
        "params": {
          "err": "Aggregated error either from the request's source code or from the execution pipeline.",
          "requestId": "The requestId returned by FunctionsClient.sendRequest().",
          "response": "Aggregated response from the request's source code."
        }
      }
    },
    "version": 1
  },
  "userdoc": {
    "kind": "user",
    "methods": {
      "handleOracleFulfillment(bytes32,bytes,bytes)": {
        "notice": "Chainlink Functions response handler called by the Functions Router during fullilment from the designated transmitter node in an OCR round."
      }
    },
    "version": 1
  },
  "storageLayout": {
    "storage": [
      {
        "astId": 4740,
        "contract": "contracts/GetFunction.sol:GetFunction",
        "label": "s_lastRequestId",
        "offset": 0,
        "slot": "0",
        "type": "t_bytes32"
      },
      {
        "astId": 4742,
        "contract": "contracts/GetFunction.sol:GetFunction",
        "label": "s_lastResponse",
        "offset": 0,
        "slot": "1",
        "type": "t_bytes_storage"
      },
      {
        "astId": 4744,
        "contract": "contracts/GetFunction.sol:GetFunction",
        "label": "s_lastError",
        "offset": 0,
        "slot": "2",
        "type": "t_bytes_storage"
      },
      {
        "astId": 4761,
        "contract": "contracts/GetFunction.sol:GetFunction",
        "label": "router",
        "offset": 0,
        "slot": "3",
        "type": "t_address"
      },
      {
        "astId": 4764,
        "contract": "contracts/GetFunction.sol:GetFunction",
        "label": "donID",
        "offset": 0,
        "slot": "4",
        "type": "t_bytes32"
      },
      {
        "astId": 4767,
        "contract": "contracts/GetFunction.sol:GetFunction",
        "label": "gasLimit",
        "offset": 0,
        "slot": "5",
        "type": "t_uint32"
      },
      {
        "astId": 4769,
        "contract": "contracts/GetFunction.sol:GetFunction",
        "label": "s_subscriptionId",
        "offset": 4,
        "slot": "5",
        "type": "t_uint64"
      },
      {
        "astId": 4772,
        "contract": "contracts/GetFunction.sol:GetFunction",
        "label": "source",
        "offset": 0,
        "slot": "6",
        "type": "t_string_storage"
      },
      {
        "astId": 4774,
        "contract": "contracts/GetFunction.sol:GetFunction",
        "label": "_answer",
        "offset": 0,
        "slot": "7",
        "type": "t_string_storage"
      }
    ],
    "types": {
      "t_address": {
        "encoding": "inplace",
        "label": "address",
        "numberOfBytes": "20"
      },
      "t_bytes32": {
        "encoding": "inplace",
        "label": "bytes32",
        "numberOfBytes": "32"
      },
      "t_bytes_storage": {
        "encoding": "bytes",
        "label": "bytes",
        "numberOfBytes": "32"
      },
      "t_string_storage": {
        "encoding": "bytes",
        "label": "string",
        "numberOfBytes": "32"
      },
      "t_uint32": {
        "encoding": "inplace",
        "label": "uint32",
        "numberOfBytes": "4"
      },
      "t_uint64": {
        "encoding": "inplace",
        "label": "uint64",
        "numberOfBytes": "8"
      }
    }
  }
}